:020000040000FA
:0400000052EF00F0CB
:060008004082D9EF07F071
:100018004080D8CF01F0E8CF02F0E0CF03F08C5059
:100028007F0B80098C6EAECF04F0630E0418D8A441
:1000380020EF00F022EF00F023EF00F03F92700E67
:100048000418D8A42AEF00F02CEF00F02DEF00F0F0
:100058003F82610E0418D8A434EF00F036EF00F0A8
:100068003AEF00F0000E3B6E010E3A6E620E041875
:10007800D8A441EF00F043EF00F047EF00F0000E86
:100088003B6E000E3A6E8C507F0B8C6E03C0E0FF07
:1000980002C0E8FF01C0D8FF409010000FEF08F041
:1006000000000850800B156E085008241C6E07AEC1
:100610000CEF03F00EEF03F00FEF03F01C801C5003
:10062000D8B415EF03F017EF03F02CEF03F01C28FC
:10063000D8A41DEF03F01FEF03F027EF03F0000E27
:10064000056E000E066E000E076E000E086E078E19
:10065000000E086E34EF03F0000E056E000E066EFD
:10066000000E076E000E086E0C50800B151A0C5011
:100670000C241D6E0BAE3FEF03F041EF03F042EF91
:1006800003F01D801D50D8B448EF03F04AEF03F08B
:100690005FEF03F01D28D8A450EF03F052EF03F0F2
:1006A0005AEF03F0000E096E000E0A6E000E0B6E7C
:1006B000000E0C6E0B8E000E0C6E67EF03F0000E3A
:1006C000096E000E0A6E000E0B6E000E0C6E0950C5
:1006D0000A100B100C10D8A470EF03F072EF03F0A7
:1006E0008AEF03F0000E056E000E066E000E076E18
:1006F000000E086E800E07127F0E081215500812A9
:1007000005C005F006C006F007C007F008C008F0F5
:10071000CDEF04F01C50D8A490EF03F092EF03F05B
:100720009CEF03F0000E056E000E066E000E076EC5
:10073000000E086ECDEF04F01D501CC00DF00E6AC7
:100740000D5E000E0E5A7F0E0D24166E000E0E204A
:10075000176E05C011F006C012F007C013F008C0F4
:1007600014F0000E056E000E066E000E076E000EF1
:10077000086E000E186E000E196E000E1A6E000E36
:100780001B6E000E1D6EFDEF03F01D50D8B4CBEFB5
:1007900003F0CDEF03F0E4EF03F0D89011361236FA
:1007A00013361436D89005360636073608361BAE93
:1007B000DCEF03F0DEEF03F0DFEF03F00580D8900D
:1007C000183619361A361B360950115C0A50125861
:1007D0000B5013580C501458D8A0F1EF03F0F3EF5E
:1007E00003F0FCEF03F01B8C0950115E0A50125A03
:1007F0000B50135A0C50145A1D2A190E1D6403EF86
:1008000004F005EF04F0C5EF03F0115012101310BF
:100810001410D8B40EEF04F010EF04F028EF04F039
:10082000188028EF04F0D8900536063607360836CB
:100830001BAE1DEF04F01FEF04F020EF04F0058065
:10084000D890183619361A361B361606D8A0170651
:1008500007AE2DEF04F02FEF04F013EF04F0000EBD
:100860001D6E1BAE36EF04F038EF04F05CEF04F0C1
:10087000FF0E18140D6EFF0E19140E6EFF0E1A14D3
:100880000F6E7F0E1B14106E0D500E100F101010F7
:10089000D8B44DEF04F04FEF04F053EF04F0010E25
:1008A0001D6E5CEF04F005A058EF04F05AEF04F061
:1008B0005CEF04F04FEF04F01D50D8B462EF04F089
:1008C00064EF04F088EF04F0010E0526000E062206
:1008D0000722082208A06FEF04F071EF04F088EF00
:1008E00004F005C00DF006C00EF007C00FF008C000
:1008F00010F0103410320F320E320D320DC005F0F0
:100900000EC006F00FC007F010C008F0164A172AF4
:1009100017BE93EF04F0175008E11628D8A093EF04
:1009200004F095EF04F0A0EF04F0000E176E1668C7
:10093000000E056E000E066E000E076E000E086EAD
:1009400017BEADEF04F0175006E11604D8B0ABEFB8
:1009500004F0ADEF04F0BBEF04F0000E176E000ED4
:10096000166E000E056E000E066E000E076E000E6F
:10097000086E000E156E16C01CF01CA0C2EF04F02D
:10098000C4EF04F0C7EF04F0078EC8EF04F0079E31
:10099000D8901C30086E7EEF03F0120003EC08F0D4
:1009A00024EC08F0000E2E6E000E2F6E7A0E306EC4
:1009B000450E316E000E326E000E336E7A0E346EBE
:1009C000450E356E5CEC07F0B6EC07F0010E8C6E50
:1009D0003A043B10D8A4EFEF04F0F1EF04F005EF78
:1009E00005F0000E2E6E000E2F6E7A0E306E450E44
:1009F000316E000E326E000E336E7A0E346E450E7E
:100A0000356E5CEC07F037EF05F0000E2E6E400EF1
:100A10002F6E1C0E306E460E316E000E326E400E82
:100A2000336E9C0E346E450E356E5CEC07F0010E95
:100A3000056E000E066E000E076E000E086E8FEC3F
:100A400007F0000E2E6E000E2F6E7A0E306E450EE1
:100A5000316E000E326E000E336E7A0E346E450E1D
:100A6000356E5CEC07F0000E3B6E010E3A6E3FB245
:100A70003CEF05F03EEF05F0E8EF04F03FA043EF58
:100A800005F045EF05F0E8EF04F03F909EA84BEF2E
:100A900005F04DEF05F046EF05F0300EAD6E0000AD
:100AA0009EA855EF05F057EF05F050EF05F00A0E40
:100AB000AD6E00009EA85FEF05F061EF05F05AEF04
:100AC00005F00D0EAD6EE8EF04F052EF00F00734C4
:100AD00008340E6E0E50D8A470EF05F072EF05F0DA
:100AE0007CEF05F0000E056E000E066E000E076E20
:100AF000000E086EE9EF05F005C009F006C00AF027
:100B000007C00BF008C00CF0200E8CEF05F0D89059
:100B10000C320B320A320932E82E87EF05F0095009
:100B20000D6E078EFF0E0516FF0E0616FF0E07163A
:100B3000000E0816960E0E5E0EBEA3EF05F0A1EF96
:100B400005F0B9EF05F00E50800A970FD8B0ABEF63
:100B500005F0ADEF05F0AFEF05F072EF05F0D890BE
:100B600008320732063205320E3EAFEF05F0D1EF04
:100B700005F01F0E0E64BFEF05F0C1EF05F0C9EFE1
:100B800005F072EF05F0D8900536063607360836C0
:100B90000E060E50D8A4CFEF05F0D1EF05F0C3EF4D
:100BA00005F00D50D8B4D7EF05F0D9EF05F0E1EF1F
:100BB00005F0081E071E061E056C000E0622072201
:100BC000082205C005F006C006F007C007F008C0FF
:100BD00008F01200000E056E000E066E800E076E05
:100BE0003F0E086E1EC009F01FC00AF020C00BF0B7
:100BF00021C00CF001EC03F005C026F006C027F080
:100C000007C028F008C029F0950E096EBF0E0A6EC5
:100C1000D60E0B6E340E0C6E26C005F027C006F003
:100C200028C007F029C008F001EC03F005C02AF045
:100C300006C02BF007C02CF008C02DF02AC005F02C
:100C40002BC006F02CC007F02DC008F0000E096E76
:100C5000000E0A6E800E0B6E400E0C6E01EC03F05F
:100C600005C022F006C023F007C024F008C025F01C
:100C700022C005F023C006F024C007F025C008F00C
:100C800067EC05F0FF0E05240F6EFF0E0620106EB8
:100C900012EC07F00F50BB6E1200000E056E000E36
:100CA000066E800E076E3F0E086E1EC009F01FC054
:100CB0000AF020C00BF021C00CF001EC03F005C0DD
:100CC00022F006C023F007C024F008C025F022C09F
:100CD00005F023C006F024C007F025C008F0950EEB
:100CE000096EBF0E0A6ED60E0B6E340E0C6E01EC42
:100CF00003F005C026F006C027F007C028F008C0A2
:100D000029F026C005F027C006F028C007F029C04A
:100D100008F067EC05F005C00FF006C010F012EC0B
:100D200007F00F50FC0BBE6E26C005F027C006F082
:100D300028C007F029C008F067EC05F005C00FF0E7
:100D400006C010F012EC07F0030E0F160F3AF00E6B
:100D50000F16300E0F16BD50CF0B0F10BD6E1200C8
:100D6000000E0A6E08BEB9EF06F0B7EF06F0BFEF4F
:100D700006F0076C081ED8B0082A010E0A6E06BEDF
:100D8000C6EF06F0C4EF06F0CCEF06F0056C061EC9
:100D9000D8B0062A010E0A1A000E0C6E000E0B6E59
:100DA00007500810D8B4D7EF06F0D9EF06F001EFDE
:100DB00007F0010E096EE1EF06F0D890073608360D
:100DC000092A08AEE6EF06F0E8EF06F0DDEF06F0E0
:100DD000D8900B360C360750055C08500658D8A042
:100DE000F4EF06F0F6EF06F0FBEF06F00750055EB5
:100DF0000850065A0B80D89008320732092EE8EFC7
:100E000006F00A50D8B407EF07F009EF07F00DEF2E
:100E100007F00B6C0C1ED8B00C2A0BC005F00CC0F0
:100E200006F01200000E146E000E136E000E166E09
:100E3000010E156E4AEF07F0010E0F14116E126AC3
:100E400011C005F012C006F015C007F016C008F07A
:100E5000F0EC07F005501326065014220FC005F0E1
:100E600010C006F0000E086E020E076EB0EC06F021
:100E700005C00FF006C010F015C005F016C006F052
:100E8000000E086E0A0E076EF0EC07F005C015F0B4
:100E900006C016F010BE57EF07F0105006E10F0421
:100EA000D8B055EF07F057EF07F01CEF07F013C06D
:100EB0000FF014C010F0120032C01EF033C01FF04B
:100EC00034C020F035C021F0EAEC05F02EC01EF051
:100ED0002FC01FF030C020F031C021F04DEC06F0E3
:100EE0000F013AB576EF07F07AEF07F0366A362A47
:100EF0007BEF07F0366A010E376E362A82EF07F075
:100F0000D8903736362E80EF07F03750FF0A0F01A2
:100F10003A1794940C0EBD6E050EBA6E1200000EB8
:100F20000A6E000E0B6E000E0C6E000E0D6EA6EF1C
:100F300007F0040E096E3E0EE82EFED7092EFCD7F0
:100F4000010E0A26000E0B220C220D2205500A5C0F
:100F500006500B5807500C5808500D58D8A0B3EF46
:100F600007F0B5EF07F099EF07F01200000E0F0140
:100F70003B6F000E8C6E000E956E1AEC08F00F01A0
:100F80003A9D949C3A9F948E240EAC6E900EAB6E5C
:100F9000080EB86E030EAF6E010EB06E9E989D984F
:100FA0009F9A9E9A9D8AD08EF28CF28E3D923D90B1
:100FB00012009EA8DEEF07F0E0EF07F0D9EF07F090
:100FC000320EAD6E8C50BF0B8C6E9E90800ECF6E2D
:100FD000000ECE6E3F808C50BF0B8C6E4092110085
:100FE00005500702F3CF09F0F4CF0AF005500802CC
:100FF000F3500A2606500702F3500A2609C005F0EE
:101000000AC006F01200000E0F013B6F000E956E35
:10101000010E8C6E000E396F010E936E120000EE01
:1010200038F0080EEE6AE806FDE1409040920001BB
:10103000CEEF04F08F0ECD6E800ECF6E000ECE6E12
:0A1040009E909F809D801200120018
:020000040020DA
:08000000FFFFFFFFFFFFFFFF00
:020000040030CA
:0E000000FF231F3FFFBF85FF0FC00FE00F4023
:00000001FF
